:1000000027EF09F00000000000EF00F00000000002
:0A0010000000000000000000F3D71C
:10001C000F0E0C6E470E0D6E0D2EFED70C2EFCD750
:06002C00000000001200BC
:06003200000000001200B6
:0A003800210E0D6E0D2EFED71200F2
:10004200020178BF02D0819601D0818678BD02D0AC
:10005200819401D0818478BB02D0819201D08182C7
:1000620078B902D0819001D081803AB102D08188E2
:1000720001D08198818ADCDF819A78B702D081969B
:1000820001D0818678B502D0819401D0818478B381
:1000920002D0819201D0818278B102D0819001D0C8
:1000A20081803AB102D0818801D08198818AC0DFF3
:0E00B200819A3AA102D0B1DF01D0BDDF120069
:0E00C00002013A9177C278F2BCDF3A81120059
:1000CE000134083609360450085E0550D8A0053CA8
:1000DE00095E003601360F0E0C6E013408360936F5
:1000EE00045000A006D0085E0550D8A0053C095E5D
:1000FE0005D008260550D8B0053C09260036013635
:10010E000C2EEBD700B006D0045008260550D8B000
:08011E00053C09260000120057
:10012600016A026A02017351025C02E17251015CCA
:100136000EE2036A046A000E045C02E1AF0E035C81
:1001460003E2034A042AF7D7014A022AEBD7120030
:1001560010D0800E0201726F1AD0C00E726F17D0C7
:10016600940E726F14D0D40E726F11D0800E726F0F
:100176000ED002017251010AECE07251020AEDE062
:100186007251030AEDE07251040AEDE0EFD77305F0
:10019600006E7251002600C072F200C078F24EDF87
:1001A6003A91766B76517425E96E000E7521EA6EEA
:1001B600EE520BE076517425E96E000E7521EA6E5B
:0E01C600EECF77F27ADF762BEDD73A8112007A
:1001D40072C2A9FF73C2A8FFA69EA684F2CF00F044
:1001E400F26A550EA76EAA0EA76EA68200C0F2FF91
:0E01F400A694A1B802D00000FCD7A19812007A
:0E02020072C2A9FFA69EA680A8CF00F012002F
:10021000010E0201786F15DF010E726F010E736F10
:100220000E0E746F020E756F96DF020E726F010E66
:10023000736F69C274F26AC275F28DDF69C2E9FF39
:100240006AC2EAFF300EEE5C006E00C06CF2010E76
:100250006925E96E000E6A21EA6E300EEE5C6D6F64
:10026000020E6925E96E000E6A21EA6E300EEE5C20
:100270006E6F030E6925E96E000E6A21EA6E300E7C
:10028000EE5C6F6FF40E726F010E736F4CDF44D132
:1002900002016B6B040E6B5D31E26B516725726F6F
:1002A0006C0EE96E020EEA6E6B51E926D8B0EA2AAE
:1002B000EECF73F28FDFC80E0201726F000E736F04
:1002C00032DF300E0201706F020E716F6B517027BA
:1002D000D8B0712B6B516725726F93DF300E0026FB
:1002E00070C2E1FF71C2E2FF00C0E6FFC80E726F8C
:1002F000000E736F18DF02016B2BCCD7010E786FE5
:10030000A0DE010E726F010E736FC30E746F000ECC
:10031000756F21DF020E726F010E736F300E746FF6
:10032000020E756F18DFD00E726F070E736FFBDE53
:100330000FD102016B6B040E6B5D31E26B516725CF
:10034000726F6C0EE96E020EEA6E6B51E926D8B040
:10035000EA2AEECF73F23EDFC80E0201726F000E82
:10036000736FE1DE350E0201706F020E716F6B511B
:100370007027D8B0712B6B516725726F42DF300E3A
:10038000002670C2E1FF71C2E2FF00C0E6FFC80EA6
:10039000726F000E736FC7DE02016B2BCCD7010E9C
:1003A000786F4FDE010E726F010E736FD10E746F96
:1003B000000E756FD0DE020E726F010E736F350E78
:1003C000746F020E756FC7DED00E726F070E736FFB
:1003D000AADEBED002016B6B040E6B5D31E26B5185
:1003E0006725726F6C0EE96E020EEA6E6B51E9269C
:1003F000D8B0EA2AEECF73F2EDDEC80E0201726FBA
:10040000000E736F90DE260E0201706F020E716F88
:100410006B517027D8B0712B6B516725726FF1DE6D
:10042000300E002670C2E1FF71C2E2FF00C0E6FF9D
:10043000C80E726F000E736F76DE02016B2BCCD785
:10044000010E786FFEDD010E726F010E736FB50E37
:10045000746F000E756F7FDE020E726F010E736F88
:10046000260E746F020E756F76DED00E726F070E59
:10047000736F59DE6DD002016B6B040E6B5D31E260
:100480006B516725726F6C0EE96E020EEA6E6B514E
:10049000E926D8B0EA2AEECF73F29CDEC80E02013C
:1004A000726F000E736F3FDE2B0E0201706F020E33
:1004B000716F6B517027D8B0712B6B516725726FBC
:1004C000A0DE300E002670C2E1FF71C2E2FF00C064
:1004D000E6FFC80E726F000E736F25DE02016B2BF4
:1004E000CCD7010E786FADDD010E726F010E736F08
:1004F000960E746F000E756F2EDE020E726F010E77
:10050000736F2B0E746F020E756F25DED00E726F37
:10051000070E736F08DE1CD0000E0201681902E19D
:10052000010E6719D8B4B4D6000E681902E1020EA4
:100530006719D8B4FED6000E681902E1030E6719D8
:10054000D8B448D7000E681902E1040E671993E089
:02055000120097
:10055200F00E836EF00E836E83CF3CF2F00E8314A6
:10056200016E01C03CF20150F00AF4E1320E0201C8
:10057200726F000E736FD6DD83CF3CF2F00E8314E0
:10058200016E01C03CF20150F00AF0E0140E0201CB
:10059200726F000E736FC6DD83CF3CF2F00E8314D0
:1005A200016E01C03CF20150F00AE0E0FE0E836EE3
:1005B20083CF3CF2F00E8314016E01C03CF2015075
:1005C200F00A03E002013B6B2AD0FD0E836E83CF5B
:1005D2003CF2F00E8314016E01C03CF20150F00AAD
:1005E20004E00201010E3B6F1AD0FB0E836E83CF33
:1005F2003CF2F00E8314016E01C03CF20150F00A8D
:1006020004E00201020E3B6F0AD00201F70E836E74
:1006120083CF3CF2F00E83143C6F030E3B6F12004B
:1006220002016B6B6C6BC00E786F0ADD696B6A6BD3
:10063200800E6A19006E800E005C02E1040E695D94
:100642001FE269516725E96E6A516821EA6E300E30
:100652006925D96E020E6A21DA6EEE50DE1802E1C9
:100662006B4B6C2B000E6C1902E1040E6B1905E149
:10067200010E006E000E016E90D0694B6A2BD8D726
:10068200010E786FDDDC6B6B6C6B696B6A6B800ED5
:100692006A19006E800E005C02E1040E695D1FE2C1
:1006A20069516725E96E6A516821EA6E350E69253E
:1006B200D96E020E6A21DA6EEE50DE1802E16B4B41
:1006C2006C2B000E6C1902E1040E6B1905E1020E8F
:1006D200006E000E016E61D0694B6A2BD8D7010EF5
:1006E200786FAEDC6B6B6C6B696B6A6B800E6A1930
:1006F200006E800E005C02E1040E695D1FE269512A
:100702006725E96E6A516821EA6E260E6925D96E5F
:10071200020E6A21DA6EEE50DE1802E16B4B6C2B90
:10072200000E6C1902E1040E6B1905E1030E006E56
:10073200000E016E32D0694B6A2BD8D7010E786F4A
:100742007FDC6B6B6C6B696B6A6B800E6A19006E77
:10075200800E005C02E1040E695D1FE269516725AB
:10076200E96E6A516821EA6E2B0E6925D96E020E76
:100772006A21DA6EEE50DE1802E16B4B6C2B000E32
:100782006C1902E1040E6B1905E1040E006E000EF5
:0C079200016E03D0694B6A2BD8D712000F
:10079E000201696B69516725E96E000E6821EA6EE8
:1007AE00EE520BE069516725E96E000E6821EA6E84
:0C07BE00EECF77F27EDC692BEDD7120045
:1007CA0010D0800E0201676F1AD0C00E676F17D063
:1007DA00940E676F14D0D40E676F11D0800E676FB6
:1007EA000ED002016751010AECE06751020AEDE0FE
:1007FA006751030AEDE06751040AEDE0EFD7680597
:10080A00006E6751002600C067F23A8100C078F294
:0E081A0013DC3A9169C278F20FDC3A811200C9
:100828000450000A08E10550000A05E1FF0E006EB9
:100838007F0E016E57D00D6A096A086A01500010D0
:10084800D8B4000C015005180A6E0ABE0D1E0B6ABA
:1008580005AE05D0041E051E042AD8B4052A01AE2B
:1008680005D0001E011E002AD8B4012A0150051027
:100878000A6E0ABE10D027DC0BB020D00DAE000CDB
:10088800001E011E002AD8B4012A081E091E082AC3
:10089800D8B4092A000C05AE0DD001BE07D001500E
:1008A800096E0050086E016A006AE8D7016A006A9A
:1008B800002A000C011E001E0B2ADDD7082AD8B416
:1008C800092A0450085CD8A4D9D70550095CD8A4D3
:1008D800D5D7096A086A002AD8B4012A01AECED74A
:0608E8000000FF0C1200ED
:1008EE00939A93989390939293949396819A8198D6
:1008FE0081968194819281900EEC00F00EEC00F0C6
:10090E000EEC00F081828180818A19EC00F0819AD0
:10091E000EEC00F0818A19EC00F0819A0EEC00F0DA
:10092E00818A19EC00F0819A0EEC00F08190818A98
:10093E0019EC00F0819A0EEC00F0818A19EC00F0AF
:10094E00819A81928186818A19EC00F0819A0EEC4F
:10095E0000F081968180818A19EC00F0819A819055
:10096E00818A19EC00F0819A0EEC00F0818A19EC64
:10097E0000F0819A8180818A19EC00F0819A0EEC48
:10098E0000F08190818A19EC00F0819A8186818431
:10099E0081828180818A19EC00F0819A0EEC00F040
:0609AE0002013A81120073
:1009B4000900F5CFE6FF0006FBE10106F9E11200AC
:1009C4000201636B646B656B666B010E786F21ECDF
:1009D40000F0010E726F010E736FA40E746F000E9F
:1009E400756FABEC00F0C00E786F21EC00F0636B18
:1009F400646B800E6419006E800E005C02E1040ECC
:100A0400635DD8B090D0A3DD3C51E00A1DE12A0E0D
:100A1400776F60EC00F0490E6325E16E020E6421ED
:100A2400E26E3BC200F0000E016E0036009001360B
:100A3400003600900136DF0E0024E96E000E01201E
:100A4400EA6EEECFE6FF6CD03C51D00A21E12A0ECB
:100A5400776F60EC00F0490E6325E16E020E6421AD
:100A6400E26E3BC200F0000E016E003600900136CB
:100A7400003600900136DF0E0026000E0122010E22
:100A84000024E96E000E0120EA6EEECFE6FF48D0A6
:100A94003C51B00A21E12A0E776F60EC00F0490E58
:100AA4006325E16E020E6421E26E3BC200F0000E8B
:100AB400016E003600900136003600900136DF0EDC
:100AC4000026000E0122020E0024E96E000E012011
:100AD400EA6EEECFE6FF24D03C51700A21E12A0EE3
:100AE400776F60EC00F0490E6325E16E020E64211D
:100AF400E26E3BC200F0000E016E0036009001363B
:100B0400003600900136DF0E0026000E0122030E8F
:100B14000024E96E000E0120EA6EEECFE6FF00D05D
:100B2400634B642B66D7490E676F020E686F77DDDF
:100B340000C065F201C066F2010E786F21EC00F08E
:100B4400000E661902E1040E651913E0000E661921
:100B540002E1030E65190DE0000E661902E1020EB2
:100B6400651907E0000E661902E1010E651901E03E
:100B74004BD2010E726F010E736FF50E746F000E7F
:100B8400756FABEC00F0C00E786F21EC00F0636B76
:100B9400646B800E6419006E800E005C02E1040E2A
:100BA400635DD8B094D0D3DC3C51E00A1EE1080E5A
:100BB400676F010E686FF1DD510E6325E16E020E61
:100BC4006421E26E3BC200F0000E016E003600901C
:100BD4000136003600900136DF0E0024E96E000E67
:100BE4000120EA6EEECFE6FF6FD03C51D00A22E13D
:100BF400F30E676F000E686FD0DD510E6325E16E52
:100C0400020E6421E26E3BC200F0000E016E00365B
:100C140000900136003600900136DF0E0026000EEB
:100C24000122010E0024E96E000E0120EA6EEECFCF
:100C3400E6FF4AD03C51B00A22E1EF0E676F000E86
:100C4400686FABDD510E6325E16E020E6421E26E26
:100C54003BC200F0000E016E0036009001360036F3
:100C640000900136DF0E0026000E0122020E002441
:100C7400E96E000E0120EA6EEECFE6FF25D03C516E
:100C8400700A22E1F10E676F000E686F86DD510E67
:100C94006325E16E020E6421E26E3BC200F0000E99
:100CA400016E003600900136003600900136DF0EEA
:100CB4000026000E0122030E0024E96E000E01201E
:100CC400EA6EEECFE6FF00D0634B642B62D7010ED1
:100CD400786F21EC00F0010E726F010E736F510EEC
:100CE400746F020E756FABEC00F0F40E726F010EB0
:100CF400736F93EC00F0010E0201726F010E736FBB
:100D04001B0E746F000E756FABEC00F0C00E786FA5
:100D140021EC00F0636B646B800E6419006E800E2E
:100D2400005C02E1040E635DD8B094D010DC3C5149
:100D3400E00A1EE12E0E676F000E686F2EDD4D0E69
:100D44006325E16E020E6421E26E3BC200F0000EE8
:100D5400016E003600900136003600900136DF0E39
:100D64000024E96E000E0120EA6EEECFE6FF6FD09C
:100D74003C51D00A22E1190E676F000E686F0DDD39
:100D84004D0E6325E16E020E6421E26E3BC200F05B
:100D9400000E016E003600900136003600900136D8
:100DA400DF0E0026000E0122010E0024E96E000E63
:100DB4000120EA6EEECFE6FF4AD03C51B00A22E1B0
:100DC400150E676F000E686FE8DC4D0E6325E16E4B
:100DD400020E6421E26E3BC200F0000E016E00368A
:100DE40000900136003600900136DF0E0026000E1A
:100DF4000122020E0024E96E000E0120EA6EEECFFD
:100E0400E6FF25D03C51700A22E1170E676F000EF1
:100E1400686FC3DC4D0E6325E16E020E6421E26E41
:100E24003BC200F0000E016E003600900136003621
:100E340000900136DF0E0026000E0122030E00246E
:100E4400E96E000E0120EA6EEECFE6FF00D0634BA0
:100E5400642B62D7010E786F21EC00F0020E726FE2
:100E6400010E736F4D0E746F020E756FABEC00F0D4
:100E7400F40E726F010E736F93EC00F002015F6B5E
:100E8400606B636B646B800E6419006E800E005C93
:100E940002E1040E635D14E24D0E6325E96E020E59
:100EA4006421EA6E510E6325D96E020E6421DA6E56
:100EB400EE50DE1802E15F4B602B634B642BE3D7EB
:100EC400000E601902E1040E5F19D8A488D0010E47
:100ED400786F21EC00F0010E726F010E736F300E0B
:100EE400746F000E756FABEC00F0020E726F010EA2
:100EF400736F510E746F020E756FABEC00F065C228
:100F040061F266C262F2640E046E000E056E65C282
:100F140000F066C201F086DC00C05AF20A0E046ECC
:100F2400000E056E61C200F062C201F07BDC0A0EA5
:100F3400046E000E056E76DC08C000F009C001F0F6
:100F440000C05BF20A0E046E000E056E61C200F072
:100F540062C201F067DC08C000F009C001F000C003
:100F64005CF2300E00240201696F020E676F0C0EF2
:100F7400686F29DCE80E726F030E736F93EC00F058
:100F8400010E0201786F21EC00F065C267F266C2BF
:100F940068F2510E696F020E6A6F08EC01F0010EDF
:100FA4000201786F21EC00F0010E726F010E736F75
:100FB4006D0E746F000E756FABEC00F0020E726F65
:100FC400050E736F8B0E746F000E756FABEC00F033
:100FD400200E726F030E736F93EC00F015D0010EA8
:100FE4000201786F21EC00F0010E726F010E736F35
:100FF400580E746F000E756FABEC00F0F40E726F48
:0A100400010E736F93EC00F0120070
:10100E00010E0201786F21EC00F0020E726F010EDC
:10101E00736F3B0E746F010E756FABEC00F0010E2B
:10102E00726F010E736F2C0E746F010E756FABEC39
:10103E0000F0F00E836E0F0E3B6FF00E836E83CFBB
:10104E004BF2F00E8314016E01C04BF20150F00A08
:10105E00F4E10201320E726F000E736F93EC00F02A
:10106E0083CF4BF2F00E8314016E01C04BF2015090
:10107E00F00AEFE0140E0201726F000E736F93EC24
:10108E0000F083CF4BF2F00E8314016E01C04BF2D1
:10109E000150F00ADEE0FE0E836E83CF4BF2F00EAF
:1010AE008314016E01C04BF20150F00A04E0050EEC
:1010BE0002013B6F4ED0FD0E836E83CF4BF2F00ECE
:1010CE008314016E01C04BF20150F00A10E00201D0
:1010DE00010E786F21EC00F0010E726F010E736F2E
:1010EE000A0E746F010E756FABEC00F032D0FB0E72
:1010FE00836E83CF4BF2F00E8314016E01C04BF260
:10110E000150F00A10E00201010E786F21EC00F0A0
:10111E00010E726F010E736F1B0E746F010E756FE1
:10112E00ABEC00F016D00201F70E836E83CF4BF2BC
:10113E00F00E83144B6F010E786F21EC00F0010E50
:10114E00726F010E736F4C0E746F010E756FABECF8
:10115E0000F04B51E00A010ED8A4000E016E3B5177
:10116E00050A010ED8A4000E006E015000160EE006
:10117E00010E786F21EC00F0010E726F010E736F8D
:10118E00700E746F010E756FABEC00F04B51D00A00
:10119E00010ED8A4000E016E3B51050A010ED8A413
:1011AE00000E006E015000160AE0810E676F010EF0
:1011BE00686FCFEC03F0010E496F000E4A6F4B5172
:1011CE00B00A010ED8A4000E016E3B51050A010EA5
:1011DE00D8A4000E006E015000160AE06E0E676F66
:1011EE00010E686FCFEC03F0020E496F000E4A6FCE
:1011FE004B51700A010ED8A4000E016E3B51050A28
:10120E00010ED8A4000E006E015000160EE0010E65
:10121E00786F21EC00F0010E726F010E736F5D0E90
:10122E00746F010E756FABEC00F0E80E726F030E6B
:10123E00736F93EC00F049C200F04AC201F0120045
:10124E001CEC0CF00201436B446B456B466B476B19
:10125E00486B946A926A956A936A808677EC04F07A
:10126E00010E726F010E736F430E746F000E756F69
:10127E00ABEC00F02C0E726F010E736F93EC00F05E
:10128E00020E0201726F040E736FA40E746F010EC4
:10129E00756FABEC00F0A9EC02F0B2DE00C041F2CB
:1012AE0001C042F2000E011802E1010E0018D8A48E
:1012BE009ED10201456B466B800E4619006E800E64
:1012CE00005C02E1030E455DD8B091D1010E786F3E
:1012DE0021EC00F0010E726F010E736FB20E746F7F
:1012EE00010E756FABEC00F00F0E786F21EC00F075
:1012FE00C00E786F21EC00F0436B446B800E4419E6
:10130E00006E800E005C02E1040E435DD8B091D0F9
:10131E00A9EC02F03C51E00A1DE12A0E776F60EC59
:10132E0000F03D0E4325E16E020E4421E26E3BC2FB
:10133E0000F0000E016E003600900136003600906F
:10134E000136DF0E0024E96E000E0120EA6EEECFAC
:10135E00E6FF6CD03C51D00A21E12A0E776F60EC8B
:10136E0000F03D0E4325E16E020E4421E26E3BC2BB
:10137E0000F0000E016E003600900136003600902F
:10138E000136DF0E0026000E0122010E0024E96E4A
:10139E00000E0120EA6EEECFE6FF48D03C51B00AB7
:1013AE0021E12A0E776F60EC00F03D0E4325E16ED1
:1013BE00020E4421E26E3BC200F0000E016E0036BA
:1013CE0000900136003600900136DF0E0026000E2A
:1013DE000122020E0024E96E000E0120EA6EEECF0D
:1013EE00E6FF24D03C51700A21E12A0E776F60ECA3
:1013FE0000F03D0E4325E16E020E4421E26E3BC22B
:10140E0000F0000E016E003600900136003600909E
:10141E000136DF0E0026000E0122030E0024E96EB7
:10142E00000E0120EA6EEECFE6FF00D0434B442BB8
:10143E0065D7010E786F21EC00F0010E726F010E70
:10144E00736F930E746F010E756FABEC00F0640E3C
:10145E00726F000E736F93EC00F0C00E0201786F86
:10146E0021EC00F03D0E676F020E686FCFEC03F0BB
:10147E005E0E726F010E736F93EC00F0010E02019F
:10148E00786F21EC00F03D0E676F020E686F11EC65
:10149E0003F000C047F201C048F2010E786F21EC54
:1014AE0000F0000E481902E1040E471913E0000E79
:1014BE00481902E1030E47190DE0000E481902E12A
:1014CE00020E471907E0000E481902E1010E4719F6
:1014DE0001E026D080968080010E726F010E736F30
:1014EE00830E746F010E756FABEC00F0C80E726F49
:1014FE00000E736F93EC00F0010E0201726F010E7D
:10150E00736FC10E746F010E756FABEC00F0E80EC9
:10151E00726F030E736F93EC00F08086809067D02D
:10152E0080968084010E0201726F010E736FFC0EA5
:10153E00746F010E756FABEC00F0E80E726F030E58
:10154E00736F93EC00F0C00E0201786F21EC00F087
:10155E00000E461902E1000E451911E1020E726FDE
:10156E00010E736FEB0E746F010E756FABEC00F026
:10157E00F40E726F010E736F93EC00F032D0000E0A
:10158E000201461902E1010E451911E1020E726FB8
:10159E00010E736FD10E746F010E756FABEC00F010
:1015AE00F40E726F010E736F93EC00F01AD0000EF2
:1015BE000201461902E1020E451913E1020E726F85
:1015CE00010E736FE10E746F010E756FABEC00F0D0
:1015DE008082E80E726F030E736F93EC00F08092B0
:1015EE0006D0809480860201454B462B65D60201BB
:1015FE00000E421902E1020E411902E1E2EC04F082
:04160E002CD6FFD700
:1018380010EE15F0250E006E030E016E120EF66EF8
:0E184800160EF76E000EF86EDAEC04F01200C9
:021612002A00AC
:021614002A00AA
:021616002A00A8
:1016180052452D454E54455220796F7572205053CE
:0316280057440024
:02162B002A0093
:10162D0050726F63657373696E6720776974682E86
:03163D002E2E004E
:101640002A2A59534B202050726F64756374696F56
:051650006E732A2A0060
:1016550050617373776F726473204D69736D617434
:05166500636821210073
:10166A0050617373776F7264205375636365737324
:0E167A0066756C6C79204368616E676564006C
:0B1688004368616E676564212121004A
:0E169300596F7572206E65772050343A200032
:1016A10056657269667920796F757273656C66210A
:0116B1000038
:0E16B200596F7572206E65772050333A200014
:0E16C000596F7572206E65772050313A200008
:0E16CE00596F7572206E65772050323A2000F9
:1016DC00303132333435363738394142434445465C
:0216EC002A00D2
:0216EE002A00D0
:0216F0002A00CE
:1016F200456E746572206E65772070617373776FC3
:031702007264000E
:021705002A00B8
:10170700496E76616C6964204B6579707265737395
:0117170000D1
:10171800496E76616C6964204B6579707265737384
:0117280000C0
:0F172900596F75207769736820746F203A20001C
:10173800312E556E6C6F636B20322E526573657453
:0117480000A0
:10174900496E76616C6964204B6579707265737353
:01175900008F
:10175A00496E76616C6964204B6579707265737342
:01176A00007E
:02176B0032004A
:10176D00496E76616C6964204B657970726573732F
:01177D00006B
:02177E00310038
:10178000434F4E47524154554C4154494F4E5300DC
:10179000552068617620656E74657265642E2E2E04
:0117A0000048
:0E17A100507265737320616E79206B6579005C
:0F17AF00456E7465722050617373776F726400BA
:1017BE00446F6F7220756E6C6F636B6564212100D0
:1017CE0031206368616E6365206C6566742E2E0031
:0A17DE00414C455254212121210005
:1017E80032206368616E636573206C6566742E2EA3
:0117F80000F0
:1017F90057726F6E672070617373776F72642121FE
:021809002100BC
:10180B004461746120746F2062652077726974740F
:08181B00656E2069733A20009C
:051823003333333300F4
:051828003434343400EB
:05182D003131313100F2
:051832003232323200E9
:020000040030CA
:0D000100220F0EFF0181FF0FC00FE00F4026
:00000001FF
